:200000000C94D1040C94F9040C94F9040C9403060C9430060C945D060C94F9040C94F90475
:200020000C94F9040C94F9040C9479160C94F9040C94F9040C944D160C94F9040C94F904E0
:200040000C94701F0C94F9040C94F9040C94F9040C94F9040C94F9040C94F9040C94F90426
:200060000C94F9040C94F9044155544F204D4F4445205345454B004155544F204D4F444502
:20008000204C4F434B004120202020202020200042202020202020202000452020202020AF
:2000A00020202000462F41697277617665002020202020202020202020202020202020205C
:2000C000202020202020202020202000454E544552494E4720525353492053455455502032
:2000E0002E2E2E2E2E2E20202000486F6C64204D4F444520746F20656E7465722052535367
:2001000049207365747570002D2D2D205341564544202D2D2D00465245513A20202020207C
:200120004D487A004368616E3A004120202020202020200042202020202020202000452014
:200140002020202020202000462F416972776176650042616E643A00537769746368005307
:200160006561726368004D616E75616C005363616E6E6572004D6F64653A00534156452046
:2001800053455454494E475300525353493A00465245513A20202020204D487A00312032D9
:2001A0002033203420352036203720380042414E443A20002020535749544348204D4F44BD
:2001C0004520004155544F204D4F4445205345454B00204D414E55414C204D4F44450020B1
:2001E000205253534920534554555020002042414E44205343414E4E4552005361766520BF
:20020000536574757000537769746368204D6F6465004D616E75616C204D6F646500426110
:200220006E64205363616E6E6572004175746F20536561726368004D4F44452053454C4585
:200240004354494F4E0013121110070818060919050A1A040B1B030C1C020D1D010E1E00B5
:200260000F1F14151617A1A2A3A4A5A6A7A8B1B2B3B4B5B6B7B8E1E2E3E4E5E6E7E8F1F22B
:20028000F3F4F5F6F7F8E916D516C116AD169916851671165D16651678168B169E16B116B0
:2002A000C416D716EA164916351621160D16FD161117251739176C1680169416A816BC165A
:2002C000D016E416F816052A9B29912987291D29132909299F2803290C2916291F298929BE
:2002E00092299C29052A95288B28812817280F2A192A832A8D2A062910291A2984298E2908
:200300009829022A0C2A040620000000000000404040004000A0A000000000A0E0A0E0A0B0
:20032000004060C060C000A0204080A0002040C0A0E00080800000000040808080400080FD
:20034000404040800040A0400000000040E04000000000008080000000E0000000000000FD
:20036000008000202040808000E0A0A0A0E00040C04040E000E020E080E000E020E020E05D
:2003800000A0A0E0202000E080E020C000C080E0A0E000E02040808000E0A0E0A0E000E03D
:2003A000A0E020600000400040000000400040800020408040200000E000E00000804020DD
:2003C000408000C02040004000E0A0A0E0E000E0A0E0A0A000C0A0E0A0C000E0808080E09D
:2003E00000C0A0A0A0C000E080E080E000E080E0808000E08080A0E000A0A0E0A0A000E01D
:20040000404040E000202020A0E00080A0C0C0A00080808080E000A0E0E0A0A000C0A0A09C
:20042000A0A00040A0A0A04000E0A0E080800040A0A0E06600E0A0C0E0AA00E080E020E0EC
:2004400000E04040404000A0A0A0A0E000A0A0A0A04000A0A0E0E0A200A0A040A0A000A09A
:20046000A040404000E0204080E000C0808080C000008040202000C0404040C00040A0005C
:2004800000000000000000E0008040000000000060A0A060008080C0A0C0000060808060DC
:2004A00000202060A0600040A0E08060006040E040400060A06020C0008080C0A0A000407C
:2004C000004040400040004040C0008080A0C0A000C0404040E00000A0E0A0A00000C0A05C
:2004E000A0A0000040A0A0400000C0A0C080000060A060200000C0A080800000604020605C
:200500000040E04040400000A0A0A0600000A0A0A0400000A0A0E0A00000A04040A000001B
:20052000A0E020400000E04080E0002040C040220040400040400080406040800000A04019
:200540000000000808000000000000000000003E41554155493E003E7F6B7F6B773E0022B1
:20056000777F7F3E1C0800081C3E7F3E1C0800081C2A7F2A081C00081C3E7F3E081C000003
:200580001C3E3E3E1C00FFFFE3C1C1C1E3FF00001C2222221C00FFFFE3DDDDDDE3FF000F5C
:2005A00003053948483000083E081C22221C0018141010307060000F1911133776600008C3
:2005C0002A1C771C2A080060787E7F7E786000030F3F7F3F0F0300081C2A082A1C080066BA
:2005E000666666006666003F65653D050505000C324824124C3000000000007F7F7F0008EB
:200600001C2A082A1C3E00081C3E7F1C1C1C001C1C1C7F3E1C0800080C7E7F7E0C080008F3
:20062000183F7F3F18080000007070707F7F000014227F22140000081C1C3E3E7F7F007F13
:200640007F3E3E1C1C08000000000000000000183C3C1818001800363614000000000036D1
:20066000367F367F363600081E201C023C080060660C18306606003C663C2865663F00184E
:20068000181830000000006030181818306000060C1818180C060000361C7F1C3600000003
:2006A00008083E0808000000000030303060000000003C00000000000000000060600000F0
:2006C000060C18306000003C666E7666663C001818381818187E003C66060C30607E003CA6
:2006E00066061C06663C000C1C2C4C7E0C0C007E607C0606663C003C66607C66663C007E88
:20070000660C0C181818003C66663C66663C003C66663E06663C0000181800181800000079
:2007200018180018183000060C1830180C060000003C003C0000006030180C183060003C95
:2007400066061C1800180038445C58423C00003C66667E666666007C66667C66667C003C33
:2007600066606060663C007C66666666667C007E60607C60607E007E60607C606060003C4D
:200780006660606E663C006666667E666666003C18181818183C001E0C0C0C6C6C38006699
:2007A0006C7870786C66006060606060607E0063777F6B6363630063737B6F676363003CC7
:2007C00066666666663C007C6666667C6060003C6666666E3C06007C66667C786C66003C8D
:2007E00066603C06663C007E5A1818181818006666666666663E0066666666663C180063A8
:2008000063636B7F7763006363361C366363006666663C181818007E060C1830607E001EB0
:2008200018181818181E00006030180C060000781818181818780008142241000000000081
:2008400000000000007F000C0C06000000000000003C063E663E006060607C66667C0000F3
:20086000003C6660663C000606063E66663E0000003C667E603C001C3630307C3030000030
:200880003E66663E063C006060607C666666000018001818183C000C000C0C6C6C380060D0
:2008A00060666C786C66001818181818181800000063777F6B6B0000007C7E6666660000B9
:2008C000003C6666663C00007C66667C606000003C6C6C3C0D0F0000007C66666060000076
:2008E000003E403C027C000018187E181818000000666666663E0000000066663C180000D4
:2009000000636B6B6B3E000000663C183C6600000066663E063C0000003C0C18303C000E73
:2009200018183018180E0018181800181818007018180C1818700000003A6C00000000088F
:200940001C366341417F00000007000201000003040600000000000000000102040810208B
:20096000408001020408102001020408102004040404040404040202020202020303030301
:2009800003030000000023002600290000000000250028002B0000000000240027002A00F2
:2009A000541011241FBECFEFD8E0DEBFCDBF11E0A0E0B1E0E2EFF2E402C005900D92A435AA
:2009C000B107D9F721E0A4E5B1E001C01D92A73CB207E1F719E0C2EAD9E004C02297FE01B6
:2009E0000E944E21C03AD107C9F70E94BB200C9477210C940000CF93DF93DC01FB012283AD
:200A0000518340831296CD91DC91139788819381892B888382818D7F813041F415968C9189
:200A200015979381892B15968C93159782818150823040F416968C9116979381892B169628
:200A40008C9316978091680014969C91892B80936800DF91CF910895EF92FF920F931F9378
:200A6000CF93DF9300D000D0CDB7DEB78C01FC01E084F184E114F10489F0F701848186138D
:200A800006C0B701C8010E94FB0480E040C0F70185819681009711F07C01EFCF87E090E04F
:200AA0002C834A835B8369830E94B920DC0111961C921E9212961C9212972C814A815B8140
:200AC0006981009719F114966C93149712962C93129716961C921E921597E62FF0E0E65A4C
:200AE000F64FE4911396EC931397F80180859185892B19F4B187A08703C0F701B683A5831A
:200B0000BD01C8010E94FB0481E001C08FEF0F900F900F900F90DF91CF911F910F91FF90E2
:200B2000EF900895242FE82FF0E0E259F64FE491EE23D9F061157105C1F0F0E03297E33047
:200B4000F10540F4EE0FFF1FE25BFE4F0190F081E02D02C0E0E0F0E0A081B1819C919783CB
:200B6000AB01682FCF010C942C058FEF0895FF920F931F93CF93DF93EC01209198018F8176
:200B80003D81909198014E81F0909801F094F4229323F92A8227F822809198018F83088576
:200BA000198501151105E1F0D80113969C918F2D892381F080919801892391E009F490E0DE
:200BC00090939601F8018481809397010190F081E02D0995D80115960D911C911697E1CFD9
:200BE0008BB39C81892349F08BB3892B8BBBE881F981808180939801C0CFDF91CF911F91DE
:200C00000F91FF9008951F920F920FB60F9211242F933F934F935F936F937F938F939F934B
:200C2000AF93BF93EF93FF93E0918C01F0918D018081809398018CE891E00E94B705FF917F
:200C4000EF91BF91AF919F918F917F916F915F914F913F912F910F900FBE0F901F9018955D
:200C60001F920F920FB60F9211242F933F934F935F936F937F938F939F93AF93BF93EF93A1
:200C8000FF93E0918201F091830180818093980182E891E00E94B705FF91EF91BF91AF9143
:200CA0009F918F917F916F915F914F913F912F910F900FBE0F901F9018951F920F920FB6F6
:200CC0000F9211242F933F934F935F936F937F938F939F93AF93BF93EF93FF93E0917801DC
:200CE000F091790180818093980188E791E00E94B705FF91EF91BF91AF919F918F917F910E
:200D00006F915F914F913F912F910F900FBE0F901F901895CF9361E08DE00E94D81E61E023
:200D200086E00E94D81E61E086E00E94111F60E082E00E94D81E62E082E00E94111F60E04C
:200D400083E00E94D81E62E083E00E94111F60E084E00E94D81E62E084E00E94111F60E02D
:200D600085E00E94D81E62E085E00E94111F60E08EE00E94D81E62E08EE00E94111F60E0F5
:200D80008FE00E94D81E62E08FE00E94111F60E080E10E94D81E62E080E10E94111F60E0DB
:200DA00081E10E94D81E62E081E10E94111F60E082E10E94D81E62E082E10E94111F60E0D1
:200DC00083E10E94D81E62E083E10E94111F61E08BE00E94D81E61E08AE00E94D81E61E0D7
:200DE0008CE00E94D81E60E08DE00E94D81E60E088E00E94D81E20E640E861E084E591E021
:200E00000E94D81818168CF48DE00E94471F61E0892B09F060E08DE00E94111F64E670E016
:200E200080E090E00E94E91FEFCF66E073E084E591E00E94B1166091B5017091B60142E01D
:200E400050E08DE00E94920510925A0161E08DE00E94111F60E070E089EB91E00E94811D8A
:200E60008F3F51F541E060E070E089EB91E00E94841D40E061E070E089EB91E00E94841DAC
:200E80004AE562E070E089EB91E00E94841D40E063E070E089EB91E00E94841D4CE264E01C
:200EA00070E089EB91E00E94841D41E065E070E089EB91E00E94841D60E070E089EB91E067
:200EC0000E94811D80930A0161E070E089EB91E00E94811D8093760163E070E089EB91E0FC
:200EE0000E94811DC82F62E070E089EB91E00E94811D2C2F30E0322F2227282B3093640174
:200F00002093630165E070E089EB91E00E94811DC82F64E070E089EB91E00E94811D2C2FF5
:200F200030E0322F2227282B309362012093610181E080936501CF910895CF93DF93EC01D1
:200F400060E086E00E94111FBE0180E090E00E94E91F61E086E0DF91CF910C94111F982FD2
:200F6000E6E4F2E080E02491291729F08F5F31968032C9F780E008950E94BA1F20916B01AB
:200F800030916C01621B730B6E31710548F48EE190E0861B970BBC0180E090E00C94E91F80
:200FA0000895AF92BF92CF92DF92EF92FF920F931F93CF93CAE000E010E084E10E94552072
:200FC000080F191FC150C9F7C8016AE070E00E94D8207B0180910A018630F1F580915F014F
:200FE0009091600168177907C0F47093600160935F012AE431E040E162E384E591E00E9404
:201000009A1720915F01309160010AE010E040E162E384E591E00E94411880915D01909147
:201020005E018E159F05C0F4F0925E01E0925D012AE431E040E16EE684E591E00E949A17E4
:2010400020915D0130915E010AE010E040E16EE684E591E00E944118609163017091640182
:201060002091610130916201E616F70630F0C7012E153F0518F4C90101C0CB017901E61AF4
:20108000F70A00E010E09C01261B370BB90180E090E01F921F921F9224E62F93A12CB12C4C
:2010A0006501A39420E030E0A9010E9472200F900F900F900F90CB01CF911F910F91FF901E
:2010C000EF90DF90CF90BF90AF90089560E08CE00E94111F81E090E00E940F2061E08AE0CD
:2010E0000E94111F81E090E00E940F2061E08CE00E94111F81E090E00E940F2060E08CE0AF
:201100000E94111F81E090E00C940F2060E08CE00E94111F81E090E00E940F2060E08AE093
:201120000E94111F81E090E00E940F2061E08CE00E94111F81E090E00E940F2060E08CE06E
:201140000E94111F81E090E00C940F2081E090E00E940F2060E08BE00E94111F81E090E02D
:201160000C940F2081E090E00E940F2061E08BE00E94111F81E090E00C940F201F93CF93CC
:20118000DF93E82FF0E0EE0FFF1FEA53FD4FC591D4910E94B20881E090E00E940F200E94F7
:2011A000A6080E9486080E9486080E9486080E9466080E94860814E10E9486081150E1F753
:2011C0000E94B20881E090E00E940F200E94A6080E94B2080E94A6080E9466080E948608D5
:2011E0000E9486080E9486080E94660810E1C0FF03C00E94660802C00E948608D695C79543
:201200001150A9F70E9486080E9486080E9486080E9486080E94B20881E090E00E940F200F
:2012200060E08BE00E94111F60E08CE00E94111F60E08AE0DF91CF911F910C94111FAF9278
:20124000BF92CF92DF92EF92FF920F931F93CF93DF9380910A018093090183E00E94471F8D
:20126000892B09F0EDC082E390E00E949D0764E670E080E090E00E94E91F82E390E00E946E
:201280009D0764E670E080E090E00E94E91F83E00E94471F892BD9F380910A01811103C03A
:2012A00081E080930A01C0E014E035E0F32E60E084E591E00E94871863E475E084E591E014
:2012C0000E94B116CC24CA94EE24E3940FE52FE740E060E084E591E00E941D1B0EE02FE7AC
:2012E0004EE060E084E591E00E94571A27E332E043E06AE084E591E00E9483172BE232E0D5
:2013000044E16AE084E591E00E9483172EE132E043E26AE084E591E00E94831722E132E08D
:2013200042E36AE084E591E00E94831726E032E041E46AE084E591E00E9483172BEF31E060
:2013400040E56AE084E591E00E948317C23009F440C0B8F4CC2349F1C13009F05BC092E0CD
:20136000C92EEE24E3940CE024E641E268E084E591E00E941D1B82E080930A01C09366019E
:2013800049C0C330B1F1C43009F044C0D2E0CD2EEE24E3940CE024E64EE468E084E591E03E
:2013A0000E941D1BF0920A0135C022E0C22EEE24E3940CE024E642E168E084E591E00E9479
:2013C0001D1B81E080930A0180936F011092670121C082E0C82EEE24E3940CE024E640E3EE
:2013E00068E084E591E00E941D1B83E080930A0111C002E0C02EEE24E3940CE024E64FE31E
:2014000068E084E591E00E941D1B10930A018FEF8093060183E00E94471F892BD9F3DAE0E5
:20142000D15009F404C683E00E94471F019709F020C668EC70E080E090E00E94E91FF0CF05
:201440001092710183E10E94471F892B19F484E080930A0185E00E94471F892B11F461E062
:2014600001C060E084E591E00E94841880916501811107C090910A0180910801981709F491
:2014800068C21092650160E084E591E00E94871880910A01853048F4833008F099C08130FD
:2014A00009F496C0823039F050C2853009F438C1863009F04AC263E475E084E591E00E946E
:2014C000B116CC24CA94EE24E3940EE02FE740E060E084E591E00E941D1B80910A01823088
:2014E00049F42DEE31E043E06AE084E591E00E9483172EC02FED31E043E06AE084E591E09E
:201500000E94831766E073E084E591E00E94B11626E131E040E16AE084E591E00E949A1703
:20152000109264011092630180E991E090936201809361019093600180935F0110925E01D1
:2015400010925D018AE090E090935C0180935B01CC24CA94EE24E39409E02FE74EE060E07E
:2015600084E591E00E941D1B0DE02FE742E560E084E591E00E941D1B66E073E084E591E026
:201580000E94B11621E331E044E562E084E591E00E949A1726E331E044E569E384E591E0CC
:2015A0000E949A172BE331E044E56FE684E591E00E949A171092770184E080937201E6E440
:2015C000F2E0E491E093760181E080936601BDC163E475E084E591E00E94B116CC24CA9454
:2015E000EE24E3940FE52FE740E060E084E591E00E941D1B80910A01833019F422ED31E048
:2016000009C0813019F423EC31E004C0843041F424EB31E043E06AE084E591E00E948317D3
:20162000EE24E3940EE02FE74EE060E084E591E00E94571A2DEA31E041E165E084E591E059
:201640000E9483170CE12FE74CE160E084E591E00E94571A2DE931E04EE165E084E591E07C
:201660000E9483170AE22FE74AE260E084E591E00E94571A2FE831E04DE265E084E591E05D
:201680000E94831708E32FE748E360E084E591E00E94571A66E073E084E591E00E94B116D9
:2016A00029E831E04BE365E084E591E00E94831702E42FE742E460E084E591E00E94571A30
:2016C000CC24CA940DE02FE742E560E084E591E00E941D1B21E331E044E562E084E591E044
:2016E0000E949A1726E331E044E569E384E591E00E949A172BE331E044E56FE684E591E064
:201700000E949A1763E475E084E591E00E94B11681E0809307018093680180936F0115C146
:201720004091090160E070E089EB91E00E94841D4091760161E070E089EB91E00E94841D15
:2017400063E475E084E591E00E94B116CC24CA94EE24E3940FE52FE740E060E084E591E08F
:201760000E941D1B0EE02FE74EE060E084E591E00E94571A2BE731E043E06AE084E591E0C6
:201780000E94831725E731E044E16AE084E591E00E94831780910901823069F028F4813078
:2017A000A9F42FE531E00CC0833041F0843071F428E531E005C02DE631E002C026E631E0B8
:2017C00044E162E384E591E00E94831722E531E043E26AE084E591E00E9483178091760164
:2017E000883118F028E431E00CC0803118F02EE331E007C0883018F024E331E002C02AE2F7
:2018000031E043E262E384E591E00E94831724E231E042E36AE084E591E00E9483172091EA
:20182000760127702F5F0AE010E042E362E384E591E00E94331826E131E041E46AE084E511
:2018400091E00E948317E0917601F0E0EE0FFF1FEA57FD4F2591349141E462E384E591E0BC
:201860000E94411828E031E040E56AE084E591E00E948317C5E084E690E00E949D0764E6C0
:2018800070E080E090E00E94E91FC150A1F768EE73E080E090E00E94E91F66E073E084E5B0
:2018A00091E00E94B1162AEE30E049E56AE084E591E00E94831768EE73E080E090E00E947D
:2018C000E91F68EE73E080E090E00E94E91F83E00E94471F892B21F52CEC30E049E56AE008
:2018E00084E591E00E948317CAE089E190E00E949D0769E170E080E090E00E94E91FC150E3
:20190000A1F786E080930A0183E00E94471F892BD9F368EC70E080E090E00E94E91F12C0D0
:201920002EEA30E049E56AE084E591E00E94831768EE73E080E090E00E94E91F80910901B3
:2019400080930A0181E08093650180910A018093080180910A01833031F08130D1F1843040
:2019600009F0D2C136C082E00E94471F892BB9F482E390E00E949D0768EC70E080E090E08B
:201980000E94E91F809176018F5F803218F48093760102C01092760181E08093680184E0C3
:2019A0000E94471F892BA9F482E390E00E949D0768EC70E080E090E00E94E91F809176010D
:2019C0008150803208F08FE18093760181E08093680180910A018430C1F582E10E94471FC4
:2019E000EC0181E10E94471FCC0FDD1F1C2F182B83E0182780E10E94471FEC018FE00E9422
:201A0000471F9E01220F331F220F331F880F991FC22FC82B8EE00E94471F8C2B97E0892734
:201A200090910501191304C090910601891769F0109305018093060198E0199F800D1124B9
:201A40008093760181E08093680180916801882309F453C080917601883118F024EA30E083
:201A60000CC0803118F02AE930E007C0883018F020E930E002C026E830E041E162E384E56E
:201A800091E00E948317C0917601C7708091070181110FC0609169016295607F6E5F72E0D0
:201AA000C72EE12C0CE02CE04DE184E591E00E941D1B109207016C2F6295607F6E5F52E030
:201AC000C52EEE24E3940CE02CE04DE184E591E00E941D1BC0936901E0917601F0E0EE0F3E
:201AE000FF1FEA57FD4F259134910AE010E04DE262E384E591E00E9441186091750170E0E6
:201B000080E090E01F921F921F9224E62F93A12CB12C6501A39414E6E12EF12C00E010E0D9
:201B200021E030E040E050E00E94722060937401C12CE12C04E024E64BE369E184E591E06E
:201B40000E941D1BCC24C394EE24E394209174014BE369E184E591E00E941D1B8091760101
:201B60000E94AF07809377010E94BC070E94D10780937501682F70E080E090E01F921F9201
:201B80001F922EE02F93A12CB12C6501A39414E6E12EF12C00E010E021E030E040E050E026
:201BA0000E9472206093740182E5861B8093730160917701660F660FC12CE12C0EE023E0BC
:201BC00044E484E591E00E941D1B60917701660F660FCC24C394EE24E3940091740123E0FD
:201BE0004091730184E591E00E941D1B8DB79EB708960FB6F8949EBF0FBE8DBF8091770165
:201C00008F3108F560916A01660F660F6E5FC12CE12C02E022E04AE584E591E00E941D1B33
:201C200060917701660F660F6E5FCC24C394EE24E39422E04AE584E591E00E941D1B8091BE
:201C4000770180936A01C0910A01C13009F055C08091670181112EC080916F01811115C052
:201C600080917501813588F0C093670184E690E00E949D0764E670E080E090E00E94E91FC0
:201C800084E690E00E949D0738C010926F01809177018F3120F48F5F8093770102C01092E0
:201CA0007701E0917701F0E0EA5BFD4FE491E093760123C027E730E043E06AE084E591E0BB
:201CC0000E94831782E00E94471F892BB1F482E390E00E949D0768EC70E080E090E00E94D4
:201CE000E91FC0936F011092670128E630E043E06AE084E591E00E94831761E070E084E574
:201D000091E00E94071953C18B7F823009F04FC1809166018823A1F0109266018091760172
:201D20000E94BE0880917601809370010E94BA1F60936B0170936C0180936D0190936E01D2
:201D4000809177018F3108F560916A01660F660F6E5FC12CE12C02E022E04AE584E591E043
:201D60000E941D1B60917701660F660F6E5FCC24C394EE24E39422E04AE584E591E00E94EC
:201D80001D1B8091770180936A010E94BC070E94D10780937501682F70E080E090E01F9234
:201DA0001F921F9224E32F93C5E0AC2EB12CC12CD12C14E6E12EF12C00E010E021E030E0AB
:201DC00040E050E00E9472206093740182E5861B8093730160917701660F660FC12CE12C3B
:201DE00004E323E04EE184E591E00E941D1B60917701660F660FCC24C394EE24E394009162
:201E0000740123E04091730184E591E00E941D1B0F900F900F900F9080910A01823009F00E
:201E20004BC080917501813508F446C0C12CE12C06E024E140E16091720184E591E00E9472
:201E40001D1BE0917601F0E0EA59FD4F249100E110E040E16091720184E591E00E94331831
:201E6000E0917601F0E0EE0FFF1FEA57FD4F2591349160917201665F0AE010E040E184E5FA
:201E800091E00E94411880917201825E80937201E0917601F0E0EA59FD4F249140917301AB
:201EA000455060917701660F660F635000E110E084E591E00E943318809177018F3120F492
:201EC0008F5F8093770151C01092770184E08093720180910A01863009F047C080915B0135
:201EE00090915C019C012150310930935C0120935B01892BD1F540915F01809160014093FD
:201F000063018093640180915D0190915E01909362018093610162E070E089EB91E00E94E2
:201F2000841D4091640163E070E089EB91E00E94841D4091610164E070E089EB91E00E94C1
:201F4000841D4091620165E070E089EB91E00E94841D60E070E089EB91E00E94811D809327
:201F60000A0188EE93E00E949D0782E00E94471F892BA9F482E390E00E949D0768EC70E0AD
:201F800080E090E00E94E91F8FEF809308011092770184E08093720181E080936601E091DD
:201FA0007701F0E0EA5BFD4FE491E09376018091760190917001981709F46BC00E94BE0890
:201FC00080917601809370010E94BA1F60936B0170936C0180936D0190936E018091040182
:201FE000882309F456C01092040184E690E00E949D0764E670E080E090E00E94E91F84E6DE
:2020000090E00E949D0764E670E080E090E00E94E91F84E690E0DF91CF911F910F91FF906D
:20202000EF90DF90CF90BF90AF900C949D0784E690E00E949D0762E370E080E090E00E945A
:20204000E91F84E690E00E949D0762E370E080E090E00E94E91F8FEF80930801109271019B
:2020600020E431E040E360E484E591E00E949A17E9C982E390E00E949D0768EC70E080E0E6
:2020800090E00E94E91FC43010F4CF5F10C9C0E00EC9DF91CF911F910F91FF90EF90DF9013
:2020A000CF90BF90AF900895E6E8F9E08591949190938D0180938C018BE690E090938F01CF
:2020C00080938E0181E08093900110929101109292011092950110929401E8E8F9E08591C2
:2020E000949190938301809382018CE690E0909385018093840182E0809386011092870135
:202100001092880110928B0110928A01EAE8F9E08591949190937901809378018DE690E047
:2021200090937B0180937A0184E080937C0110927D0110927E011092810110928001089559
:2021400008958091B301882321F01092A2011092A10108952091A1013091A2018091A701CB
:2021600090E02817390779F41092B8011092B7018091AD018093AE018FE591E190939E0125
:2021800080939D0116C02091A1013091A2018091A8019091A9012817390759F483EE90E1CE
:2021A00090939E0180939D01E0910B01F0910C0109958091A1019091A20101969093A2012F
:2021C0008093A10108952091A1013091A2018091A8019091A901281739070CF44EC08CEA6E
:2021E00093E090938900809388001092A2011092A1018091A3019091A401A091A501B09109
:20220000A6010196A11DB11D8093A3019093A401A093A501B093A6018091990190919A014B
:20222000A0919B01B0919C01892B8A2B8B2B09F18091990190919A01A0919B01B0919C01C8
:20224000181619061A061B0684F58091990190919A01A0919B01B0919C010197A109B10969
:202260008093990190939A01A0939B01B0939C011CC01092B1002B9818C02091A101309166
:20228000A2018091AF01992787FD90952817390761F48AE490E090938900809388008AEA04
:2022A00090E190939E0180939D018091A1019091A20101969093A2018093A1010895309153
:2022C00084002091AC012A50231B2350F0F72D5F19F02A9511F001C00000E0919F01F09162
:2022E000A00109958091AE014091AD0181110FC04093AE012091AB018091B7019091B8017D
:20230000820F911D9093B8018093B70103C081508093AE012091A1013091A2012F5F3F4FAE
:202320006091A7017091AA01552747FD50954F5F5F4F749FC001759F900D1124860F911D5A
:202340002817390731F48AEA90E190939E0180939D018091A1019091A20101969093A201AD
:202360008093A10108950F93CF93DF93A091B001B091B101C091B701D091B8018091AB01E0
:20238000AC0FBD1F0BB10F7703C000FA07F90BB90D90000007FA07F90BB900000000000081
:2023A00006FA07F90BB900000000000005FA07F90BB900000000000004FA07F90BB90000D4
:2023C0000000000003FA07F90BB900000000000002FA07F90BB900000000000001FA07F981
:2023E0000BB98A9591F60000000000FA07F90BB90BB10F7707FB07F90BB9DF91CF910F913D
:2024000008950F93CF93DF93A091B001B091B101C091B701D091B8018091AB01AC0FBD1F5D
:202420000BB10F7703C000FA07F90BB90D9007FA07F90BB90000000006FA07F90BB90000B3
:20244000000005FA07F90BB90000000004FA07F90BB90000000003FA07F90BB90000000036
:2024600002FA07F90BB900008A9501FA07F90BB9D1F6000000FA07F90BB90BB10F7707FBF5
:2024800007F90BB9DF91CF910F9108950F93CF93DF93A091B001B091B101C091B701D091B6
:2024A000B8018091AB01AC0FBD1F02C0000C0BB80D9000000BB800000000000C0BB800004F
:2024C0000000000C0BB800000000000C0BB800000000000C0BB800000000000C0BB80000C0
:2024E000000C8A950BB811F70000000C0BB80000000000005F98DF91CF910F9108950F9371
:20250000CF93DF93A091B001B091B101C091B701D091B8018091AB01AC0FBD1F8E3191F05B
:202520008D3151F08C3149F08B3141F08A3139F0893131F0883129F01CC032C048C05EC034
:2025400074C08AC00D900BB80000000C0BB80000000C0BB80000000C0BB80000000C0BB861
:202560000000000C0BB80000000C0BB80000000C0BB80D900BB80000000C0BB80000000CB3
:202580000BB80000000C0BB80000000C0BB80000000C0BB80000000C0BB80000000C0BB86D
:2025A0000D900BB80000000C0BB80000000C0BB80000000C0BB80000000C0BB80000000C73
:2025C0000BB80000000C0BB80000000C0BB80D900BB80000000C0BB80000000C0BB800009C
:2025E000000C0BB80000000C0BB80000000C0BB80000000C0BB80000000C0BB80D900BB870
:202600000000000C0BB80000000C0BB80000000C0BB80000000C0BB80000000C0BB80000AF
:20262000000C0BB80000000C0BB80D900BB80000000C0BB80000000C0BB80000000C0BB82F
:202640000000000C0BB80000000C0BB80000000C0BB80000000C0BB80D900BB80000000CD2
:202660000BB80000000C0BB80000000C0BB80000000C0BB80000000C0BB80000000C0BB88C
:202680000000000C0BB80D900BB80000000C0BB80000000C0BB80000000C0BB80000000C92
:2026A0000BB80000000C0BB80000000C0BB80000000C0BB80D900BB80000000C0BB80000BB
:2026C000000C0BB80000000C0BB80000000C0BB80000000C0BB80000000C0BB80000000CE3
:2026E0000BB80D900BB80000000C0BB80000000C0BB80000000C0BB80000000C0BB800007B
:20270000000C0BB80000000C0BB80000000C0BB80D900BB80000000C0BB80000000C0BB84E
:202720000000000C0BB80000000C0BB80000000C0BB80000000C0BB80000000C0BB80D90F1
:202740000BB80000000C0BB80000000C0BB80000000C0BB80000000C0BB80000000C0BB8AB
:202760000000000C0BB80000000C0BB80D900BB80000000C0BB80000000C0BB80000000CB1
:202780000BB80000000C0BB80000000C0BB80000000C0BB80000000C0BB80D900BB80000DA
:2027A000000C0BB80000000C0BB80000000C0BB80000000C0BB80000000C0BB80000000C02
:2027C0000BB80000000C0BB80D900BB80000000C0BB80000000C0BB80000000C0BB800009A
:2027E000000C0BB80000000C0BB80000000C0BB80000000C0BB80D900BB80000000C0BB86E
:202800000000000C0BB80000000C0BB80000000C0BB80000000C0BB80000000C0BB80000AD
:20282000000C0BB80D900BB80000000C0BB80000000C0BB80000000C0BB80000000C0BB82D
:202840000000000C0BB80000000C0BB80000000C0BB80D900BB80000000C0BB80000000CD0
:202860000BB80000000C0BB80000000C0BB80000000C0BB80000000C0BB80000000C0BB88A
:202880000D900BB80000000C0BB80000000C0BB80000000C0BB80000000C0BB80000000C90
:2028A0000BB80000000C0BB80000000C0BB80D900BB80000000C0BB80000000C0BB80000B9
:2028C000000C0BB80000000C0BB80000000C0BB80000000C0BB80000000C0BB80D900BB88D
:2028E0000000000C0BB80000000C0BB80000000C0BB80000000C0BB80000000C0BB80000CD
:20290000000C0BB80000000C0BB80D900BB80000000C0BB80000000C0BB80000000C0BB84C
:202920000000000C0BB80000000C0BB80000000C0BB80000000C0BB80D900BB80000000CEF
:202940000BB80000000C0BB80000000C0BB80000000C0BB80000000C0BB80000000C0BB8A9
:202960000000000C0BB80D900BB80000000C0BB80000000C0BB80000000C0BB80000000CAF
:202980000BB80000000C0BB80000000C0BB80000000C0BB80D900BB80000000C0BB80000D8
:2029A000000C0BB80000000C0BB80000000C0BB80000000C0BB80000000C0BB80000000C00
:2029C0000BB80D900BB80000000C0BB80000000C0BB80000000C0BB80000000C0BB8000098
:2029E000000C0BB80000000C0BB80000000C0BB80D900BB80000000C0BB80000000C0BB86C
:202A00000000000C0BB80000000C0BB80000000C0BB80000000C0BB80000000C0BB80D900E
:202A20000BB80000000C0BB80000000C0BB80000000C0BB80000000C0BB80000000C0BB8C8
:202A40000000000C0BB80000000C0BB80D900BB80000000C0BB80000000C0BB80000000CCE
:202A60000BB80000000C0BB80000000C0BB80000000C0BB80000000C0BB80D900BB80000F7
:202A8000000C0BB80000000C0BB80000000C0BB80000000C0BB80000000C0BB80000000C1F
:202AA0000BB80000000C0BB8000000005F98DF91CF910F9108958091B4014091AA0120918D
:202AC000AD01332727FD30952F5F3F4F8823F1F0429FC001439F900D112497FD01969595B2
:202AE000879591958195910984568093A70187EC8093AC0187E08093AF0188E391E09093F3
:202B0000A9018093A8018FEF93E01DC0429FC001439F900D112497FD019695958795919594
:202B20008195910985578093A7018FEB8093AC0183E08093AF0186E091E09093A901809337
:202B4000A80187EF93E090938700809386008AE490E090938900809388008091A8019091A0
:202B6000A90101969093A2018093A10183EE90E190939E0180939D01089582EC80938000A6
:202B800089E1809381000E945B1581E080936F001092B3010895E62F3093B1012093B00161
:202BA0006093AB014093AA011092A3011092A4011092A5011092A6018093B401642F70E02F
:202BC000882319F084E091E002C088ED90E00E94EC2061506093AD018091AD018093AE0144
:202BE00088E0E89F90011124442737FD4095542F60EE72E080E090E00E942221243061F02F
:202C000018F4233089F00BC0253019F0263049F006C081E092E10AC086E492E107C02730C5
:202C200018F083EB91E102C08FE792E19093A00180939F01579A219A5F98299A239A81EAFC
:202C400090E19093B6018093B5010E94BD151092B3010895CF93DF9310928000CFE6D0E09E
:202C600018820E945B1581E08093810088839881906298838093B301DF91CF910895F894C2
:202C80009091B301891739F0882319F00E942A1602C00E94BD15789408951F920F920FB60A
:202CA0000F9211242F933F934F935F936F937F938F939F93AF93BF93EF93FF93E0910D0147
:202CC000F0910E010995E0919D01F0919E010995FF91EF91BF91AF919F918F917F916F91F9
:202CE0005F914F913F912F910F900FBE0F901F9018951F920F920FB60F9211242F933F938C
:202D00004F935F936F937F938F939F93AF93BF93EF93FF932091860030918700E4E8F0E0B4
:202D200080819181821B930B91838083E0910D01F0910E010995E0919D01F0919E010995B4
:202D4000FF91EF91BF91AF919F918F917F916F915F914F913F912F910F900FBE0F901F9059
:202D60001895FC01758364830895CF92EF920F931F93CF93DF93FC01A481B581FD01329605
:202D80003491ED012196FE01C490FD01E490FE010491231B209F800111240D5F1F4F9D0145
:202DA0000E947E1BDF91CF911F910F91EF90CF900895DC0113964C91139750E01496ED91D8
:202DC000FC911597319664912091AA0130E0261B31094217530724F0649140E00C94A11CDE
:202DE000E4914E0F511DFC01438308950F931F93CF93DF931F92CDB7DEB78C01262F6A30C5
:202E000031F1F8F4662309F466C0683069F5DC011496ED91FC911597E491DC0112966C91CD
:202E2000129770E06E1B710912966C93129720E213964C910F90DF91CF911F910F910C945F
:202E4000B5166D3071F06E3009F445C00DC0DC0112961C920F90DF91CF911F910F910C94AA
:202E6000D916FC01128237C0D80112966C9112978091AB011496ED91FC911597E491462FAC
:202E800050E0B8E08B9FC00111248E1B9109F801481759076CF01282C80129830E94D91659
:202EA0002981D80113964C91139712966C9101C04381C8010E94B516D8011496ED91FC9171
:202EC0001597E491D80112968C911297F0E0E80FF11D1296EC930F90DF91CF911F910F91CF
:202EE00008950F931F93CF93DF938C01EB016991662321F0C8010E94F616F9CFDF91CF91F1
:202F00001F910F9108950F931F93CF93DF93EC0189016A834B83F8016491662331F00F5F64
:202F20001F4FCE010E94F616F6CFDF91CF911F910F910895FC0162834383B9010C9471179A
:202F40004F925F926F927F928F929F92AF92BF92CF92DF92EF92FF920F931F93CF93DF939D
:202F6000CDB7DEB7A0970FB6F894DEBF0FBECDBF5C014115510561057105C9F460E3A0969F
:202F80000FB6F894DEBF0FBECDBFDF91CF911F910F91FF90EF90DF90CF90BF90AF909F9031
:202FA0008F907F906F905F904F900C94F6168E010F5F1F4FC12CD12C76014801422E512C68
:202FC000612C712C8FEFC81AD80AE80AF80ACB01BA01A30192010E940021CA01F801619358
:202FE0008F01A901BC01411551056105710551F7F1E0CF1AD108E108F108F401EC0DFD1D8D
:2030000060816A3010F4605D01C0695CC5010E94F61681E0C81AD108E108F108EFEFCE16BA
:20302000DE06EE06FE0649F7A0960FB6F894DEBF0FBECDBFDF91CF911F910F91FF90EF90C9
:20304000DF90CF90BF90AF909F908F907F906F905F904F9008952115310519F4642F0C94A1
:20306000F6160C94A0170F931F93FC0162834383422F50E060E070E098011F910F910C9437
:203080002B180F931F93742FA9019801FC016283738360E070E01F910F910C942B18E091A7
:2030A000AB01982F9695969596952091B0013091B10187706E9FF0011124E90FF11DE20F26
:2030C000F31F413051F420E830E002C0359527958A95E2F78081822B15C041110AC02FE71B
:2030E0003FEF02C0359527958A95E2F78081822309C020E830E002C0359527958A95E2F79B
:203100008081822780830895862F0C943F16FC016130F9F030F0623009F049C080E090E0C0
:2031200031C01282138280E090E03091AB012091AA01329F90011124821793074CF4E09161
:20314000B001F091B101E80FF91F10820196EDCF08951282138280E090E04FEF3091AB0156
:203160002091AA01329F90011124821793074CF4E091B001F091B101E80FF91F408301962B
:20318000EDCF08953091AB012091AA01329F90011124821793075CF4E091B001F091B1019E
:2031A000E80FF91F2081209520830196EBCF0895FF920F931F93CF93DF93EC01F62E022F1E
:2031C000842F887FD9F0142F169516951695129FC00111240E94881D99838883009781F00B
:2031E0001A821B829C01402F612F8F2D0E94CB1560E0CE010E94871880E003C081E001C027
:2032000084E0DF91CF911F910F91FF9008954091A7015091AA012091AD01332727FD309557
:203220002F5F3F4F529FC001539F900D1124840F911D01966115710589F02091A1013091AB
:20324000A20128173907C9F72091A1013091A20128173907C9F361507109ECCF0895862F62
:20326000642FE091AB01A82FB0E098E0E99FF0011124AE17BF073CF49091AA01491718F41E
:20328000422F0C944F1808950F931F93CF93DF93DC01FA014217530749F4202F462F6E2FC8
:2032A000DF91CF911F910F910C942F192417350720F4CA019927F9019C01EF01C770DD272E
:2032C0008FEF90E0AC0102C055954795CA95E2F7EA01142F43E0F695E7954A95E1F74091B3
:2032E000AB01469FB0011124E60FF71FA9014770552702C0959587954A95E2F7582F509543
:20330000C901D3E096958795DA95E1F7860F971FE817F90719F41C2F152350E00130D9F49A
:203320009F012F5F3F4FCD91DC911197CE0FDF1F4881412B48834FEFED91FC911197E20FA1
:20334000F31F2817390720F440832F5F3F4FF4CF8081852B3BC001111CC09F012F5F3F4FD0
:20336000CD91DC911197CE0FDF1F1095488141234883ED91FC911197E20FF31F281739072D
:2033800020F410822F5F3F4FF4CF5095808185231DC00230E1F49F012F5F3F4FCD91DC91AF
:2033A0001197CE0FDF1F488141274883ED91FC911197E20FF31F2817390730F4408140959F
:2033C00040832F5F3F4FF2CF808185278083DF91CF911F910F9108950F93CF93DF93421711
:2033E000530731F4202FDF91CF910F910C942F192417350720F4FA01FF27A9019F01762F0C
:203400007770A0E8B0E002C0B595A7957A95E2F77A2FC091AB01C49FF001C59FF00D1124ED
:20342000669566956695E60FF11D013091F424173507C8F1EC01A881B981AE0FBF1F6C91CA
:20344000672B6C936091AB01E60FF11D4F5F5F4FEECF011114C07A2F70952417350718F10E
:20346000EC01A881B981AE0FBF1F6C9167236C936091AB01E60FF11D4F5F5F4FEECF0230F0
:2034800091F42417350778F0EC01A881B981AE0FBF1F6C9167276C936091AB01E60FF11DB3
:2034A0004F5F5F4FEECFDF91CF910F9108952F923F924F925F926F927F928F929F92AF92DD
:2034C000BF92CF92DF92EF92FF920F931F93CF93DF9300D000D0CDB7DEB7742F302F0E2D99
:2034E000462F50E05C834B83E091AB0158E0E59FF00111244B815C81E417F5070CF486C095
:203500004091AA01471708F481C0422E512CE415F5050CF47BC0431708F478C0621307C0AF
:20352000232F30E0472F50E00E94EC196FC0731307C092014B815C81672F0E94441966C069
:20354000261738F48B819C81841995092C018FEF05C0EB81FC814E1A5F0A81E0A72EB12C61
:20356000C32ED12C371730F495012C193D0969019FEF03C0CA18DB0891E04C145D043CF0EC
:203580003C2D2D2D6201432E522E10E001C011E0440C551C42018C189D089601220F331F0B
:2035A000612C712C292E332427FC3094E82EFF24E7FCF094C614D7044CF1402F6A2D8B81A8
:2035C00029833A830E944F1829813A8197FC0DC0113039F44B815C814E0D5F1D5C834B8319
:2035E00002C0A20CB31C821A930A113019F4A20CB31C06C08B819C818E0D9F1D9C838B8315
:20360000840C951C9FEF691A790AD4CF0F900F900F900F90DF91CF911F910F91FF90EF9088
:20362000DF90CF90BF90AF909F908F907F906F905F904F903F902F9008954F925F926F9206
:203640007F928F929F92AF92BF92CF92DF92EF92FF920F931F93CF93DF93EC01F62E142F15
:20366000422E502EDE2C8FEFC81230C0AF2CA40CED2C012F2A2D412F6F2DCE010E94571AF1
:20368000B12EB50C0B2D2F2D412F6F2DCE010E94571A2A2D412F6A2DCE010E94571A2A2D71
:2036A0004B2D6F2DCE010E94571ADF91CF911F910F91FF90EF90DF90CF90BF90AF909F905B
:2036C0008F907F906F905F904F900895E42EA02EB12CA40EB11C862E912C3401620E711C73
:2036E0008E2D90E08A159B050CF60C2D9301A4016E2DCE010E944419E394F2CF2F923F92B9
:203700004F925F926F927F928F929F92AF92BF92CF92DF92EF92FF920F931F93CF93DF93D5
:20372000CDB7DEB729970FB6F894DEBF0FBECDBFDC01962F977058E0591BE11006C0F90163
:20374000E00FF11FE4900F5F1F4FC11006C0F901E00FF11FC4900F5F1F4F8E2D8770EE2D8D
:20376000E695E695E695882321F0882483948E0E02C08E2E88E0669566956695E62EF12CB5
:20378000FC82EB82692E712CB301680F711D798768876FEF70E0088402C0759567950A94C2
:2037A000E2F7852F90E09A83898391E0891202C0562E01C0512C8FEF90E05C01052E01C014
:2037C000AA0C0A94EAF75A28462E688579856850710902C0959587956A95E2F78D8360E071
:2037E00070E0E42EF12CFF82EE82912C41E0841A91086C1508F08CC0F091AB014E815F81A3
:20380000460F571FF49FC001F59F900D1124EB80FC808E0D9F1DED91FC911197E80FF91F23
:20382000D0804D2D45214083A8014F5F5F4FF801E20FF31FA490ED91FC911197E80FF91F9E
:20384000EA2CF12C062C02C0F594E7940A94E2F7F080FE28F0821401240E351E7C01E01AAD
:20386000F10AC701840F951F0D911C911197B12C4215530508F5080F191FF801D0800980A1
:2038800001C0AA0C0A94EAF7A082F901E40FF51FA490ED91FC911197E80FF91F8A2D90E0F2
:2038A000062C02C0959587950A94E2F79081982B90834F5F5F4FD5CFE885F985389744F47E
:2038C000FC013197E00FF11FD42010811D290CC0E885F985389749F07801E80EF91EF7011C
:2038E0001081FD811F23F70110830D911C911197080F191F098002C0AA0CBB1C0A94E2F75B
:20390000F80180818A2980836F5F7F4F8A0171CF29960FB6F894DEBF0FBECDBFDF91CF91BA
:203920001F910F91FF90EF90DF90CF90BF90AF909F908F907F906F905F904F903F902F9015
:203940000895DF92EF92FF920F931F93CF93DF934130A9F1C0F0423009F44DC0433009F07C
:20396000C8C0562F5770E52E66956695669570E0719561957109F12C02E010E088E090E0E2
:20398000851B910983C08091B0019091B1012091AB01FC01629FE00DF11D11243091AA011E
:2039A000AC01329F400D511D11249A01DC012E173F0708F49EC080818D931192F8CF8091A0
:2039C000B0019091B1013091AA012091AB01DC01329FA00DB11D1124FD01629FE019F1094A
:2039E00011241196E817F90708F483C020812E9310823197F7CF162F17706695669566956E
:203A000070E0D0E028E030E0211B31098091AA01D81708F06EC08091AB01E091B001F091E7
:203A2000B1018D9FE00DF11D1124DF01A60FB71F90E002978E0F9F1F8A179B0790F0CC9189
:203A4000012E01C0CC0F0A94EAF71D924C9150E0022E02C0559547950A94E2F7C42BC193EE
:203A6000EBCF8C91012E01C0880F0A94EAF71C928083DF5FCBCF2C9130E00E2C02C035954D
:203A800027950A94E2F71C922083F3942091AA01F21678F5E091AB014E2F50E09A01215074
:203AA0003109EF9D200D311D1124E091B001F091B101E20FF31F9801241B350B2E0F3F1F85
:203AC000DF01A60FB71FA217B307A8F24C9150E00E2C02C0559547950A94E2F71C92CE911B
:203AE000082E01C0CC0F0A94EAF74C2B40833197EACFDF91CF911F910F91FF90EF90DF901D
:203B00000895CB010C946121CB01642F0C946921CF93DF938230910510F482E090E0E0912E
:203B2000C501F091C60120E030E0A0E0B0E0309739F14081518148175907B8F048175907AD
:203B400071F482819381109729F013969C938E9312972CC09093C6018093C50127C02115BB
:203B6000310531F04217530718F0A901DB0101C0EF019A01BD01DF010280F381E02DD7CF1A
:203B800021153105F9F0281B390B2430310580F48A819B816115710521F0FB019383828310
:203BA00004C09093C6018093C501FE01329644C0FE01E20FF31F8193919322503109398311
:203BC00028833AC02091C3013091C401232B41F420911101309112013093C4012093C3012C
:203BE00020910F01309110012115310541F42DB73EB74091130150911401241B350BE091ED
:203C0000C301F091C401E217F307A0F42E1B3F0B2817390778F0AC014E5F5F4F241735071A
:203C200048F04E0F5F1F5093C4014093C3018193919302C0E0E0F0E0CF01DF91CF9108956B
:203C4000CF93DF93009709F487C0FC01329713821282C091C501D091C601209781F42081BA
:203C60003181280F391F8091C3019091C4018217930779F5F093C401E093C3016DC0DE011C
:203C800020E030E0AE17BF0750F412964D915C9113979D014115510509F1DA01F3CFB38311
:203CA000A28340815181840F951F8A179B0771F48D919C911197840F951F02969183808374
:203CC00012968D919C911397938382832115310529F4F093C601E093C5013EC0D90113969F
:203CE000FC93EE9312974D915D91A40FB51FEA17FB0779F480819181840F951F0296D9017C
:203D000011969C938E938281938113969C938E931297E0E0F0E08A819B81009719F0FE019D
:203D2000EC01F9CFCE01029628813981820F931F2091C3013091C4012817390769F4309723
:203D400029F41092C6011092C50102C013821282D093C401C093C301DF91CF91089583302B
:203D600081F028F4813099F08230A1F008958630A9F08730B9F08430D1F4809180008F7DD7
:203D800003C0809180008F7780938000089584B58F7702C084B58F7D84BD08958091B000B4
:203DA0008F7703C08091B0008F7D8093B0000895CF93DF9390E0FC01E65AF64F2491FC0195
:203DC000E259F64F8491882349F190E0880F991FFC01EA56F64FA591B4918457964FFC01F0
:203DE000C591D4919FB7611108C0F8948C91209582238C93888182230AC0623051F4F8947B
:203E00008C91322F309583238C938881822B888304C0F8948C91822B8C939FBFDF91CF9172
:203E200008950F931F93CF93DF931F92CDB7DEB7282F30E0F901EA5BF64F8491F901E65AB9
:203E4000F64F1491F901E259F64F04910023C9F0882321F069830E94AF1E6981E02FF0E0AD
:203E6000EE0FFF1FE457F64FA591B4919FB7F8948C91611103C01095812301C0812B8C9323
:203E80009FBF0F90DF91CF911F910F910895CF93DF93282F30E0F901EA5BF64F8491F9019A
:203EA000E65AF64FD491F901E259F64FC491CC2391F081110E94AF1EEC2FF0E0EE0FFF1FD2
:203EC000EE57F64FA591B4912C912D2381E090E021F480E002C080E090E0DF91CF9108958B
:203EE0001F920F920FB60F9211242F933F938F939F93AF93BF938091BB019091BC01A0917D
:203F0000BD01B091BE013091BA0123E0230F2D3720F40196A11DB11D05C026E8230F0296FA
:203F2000A11DB11D2093BA018093BB019093BC01A093BD01B093BE018091BF019091C00132
:203F4000A091C101B091C2010196A11DB11D8093BF019093C001A093C101B093C201BF9145
:203F6000AF919F918F913F912F910F900FBE0F901F9018952FB7F8946091BB017091BC01DD
:203F80008091BD019091BE012FBF08953FB7F8948091BF019091C001A091C101B091C201BB
:203FA00026B5A89B05C02F3F19F00196A11DB11D3FBF6627782F892F9A2F620F711D811D34
:203FC000911D42E0660F771F881F991F4A95D1F70895CF92DF92EF92FF92CF93DF936B013F
:203FE0007C010E94C61FEB01C114D104E104F10479F00E94C61F6C1B7D0B683E7340A0F362
:2040000081E0C81AD108E108F108C851DC4FECCFDF91CF91FF90EF90DF90CF9008950197C2
:20402000009739F0880F991F880F991F02970197F1F70895789484B5826084BD84B58160EA
:2040400084BD85B5826085BD85B5816085BDEEE6F0E0808181608083E1E8F0E010828081AF
:2040600082608083808181608083E0E8F0E0808181608083E1EBF0E0808184608083E0EBAA
:20408000F0E0808181608083EAE7F0E0808184608083808182608083808181608083808116
:2040A000806880831092C10008958E3008F08E5087702091150190E4299F90011124822B14
:2040C00080937C0080917A00806480937A0080917A0086FDFCCF809178002091790090E059
:2040E000922B08954F925F926F927F92AF92BF92CF92DF92EF92FF920F931F93CF93DF93E4
:20410000CDB7DEB729013A01621B730B840B950B29893A894B895C892A193B094C095D0987
:20412000298B3A8B4B8B5C8B9B01AC0169897A898B899C890E94C820E418F5080609170920
:20414000A80197010E9422212A0D3B1D4C1D5D1DCA01B901DF91CF911F910F91FF90EF9014
:20416000DF90CF90BF90AF907F906F905F904F9008950C94881D0E941A200E948A06C0E077
:20418000D0E00E941F092097E1F30E940000F9CFDB018F939F930E944121BF91AF91A29FAB
:2041A000800D911DA39F900DB29F900D11240895AA1BBB1B51E107C0AA1FBB1FA617B70773
:2041C00010F0A61BB70B881F991F5A95A9F780959095BC01CD01089597FB072E16F40094A7
:2041E00007D077FD09D00E94D82007FC05D03EF4909581959F4F0895709561957F4F0895CB
:20420000A1E21A2EAA1BBB1BFD010DC0AA1FBB1FEE1FFF1FA217B307E407F50720F0A21B78
:20422000B30BE40BF50B661F771F881F991F1A9469F760957095809590959B01AC01BD010E
:20424000CF010895052E97FB1EF400940E94392157FD07D00E94002107FC03D04EF40C94E4
:20426000392150954095309521953F4F4F4F5F4F089590958095709561957F4F8F4F9F4F69
:2042800008950E945221A59F900DB49F900DA49F800D911D11240895EE0FFF1F0590F49116
:2042A000E02D0994A29FB001B39FC001A39F700D811D1124911DB29F700D811D1124911DC0
:2042C0000895F999FECF92BD81BDF89A992780B50895262FF999FECF1FBA92BD81BD20BD3A
:2042E0000FB6F894FA9AF99A0FBE01960895F894FFCF0100000001FFFF01020101A010A096
:20430000100000C70180000152535349204D696E3A202020202052535349204D61783A2004
:20432000202000353634350035383030003539343500202020202020202020202020200025
:064340008C0182017801EE
:00000001FF
